8=FIX.4.4|9=245|35=8|49=BrokFirm1|56=CustOrdID123|34=98765|52=20240501-12:30:45|11=ClOrdID123|6=99.50|14=1000|17=EXECID123|150=0|39=2|55=AAPL|54=1|37=123456789|32=1000|31=99.50|151=0|14=0|6=0|60=20240501-12:30:45|58=ExecReport123|17=EXECID123|39=2|150=0|54=1|151=0|10=145|